S029000041746D6567613332385F50425F436C6F6B5F4D6178373231395F445331384232302E73726563DB
S11300000C9406020C9418020C9418020C94180216
S11300100C9418020C9418020C9418020C941802F4
S11300200C9418020C9418020C9418020C943102CB
S11300300C9418020C9418020C9418020C941802D4
S11300400C9418020C9418020C9418020C941802C4
S11300500C9418020C9418020C9418020C941802B4
S11300600C9418020C9418020C9418020C941802A4
S11300700C9418020C9418020C9418020C94180294
S11300800C9418020C9418020C9418020C94180284
S11300900C9418020C9418020C9418020C94180274
S11300A00C9418020C9418020C9418020C94180264
S11300B00C94180200000000000000000010101052
S11300C010001000002424000000000000247E24FE
S11300D0247E240000083E283E0A3E08006264088C
S11300E010264600001028102A443A000008100088
S11300F00000000000040808080804000020101094
S113010010102000000014083E0814000000080825
S11301103E0808000000000000080810000000006D
S11301203E0000000000000000181800000204084F
S113013010204000003C464A52623C0000305010FF
S113014010107C00003C42023C407E00003C420C0B
S113015002423C0000081828487E0800007E407CCB
S113016002423C00003C407C42423C00007E0204CF
S113017008101000003C423C42423C00003C424219
S11301803E023C00000018000000180000001000AF
S11301900010102000000408100804000000003EB5
S11301A0003E00000000100804081000003C420457
S11301B008000800003C4A565E403C00003C4242B5
S11301C07E424200007C427C42427C00003C424031
S11301D040423C000078444242447800007E407C27
S11301E040407E00007E407C40404000003C424055
S11301F04E423C000042427E42424200007C1010CB
S113020010107C000002020202423C0000444870CC
S1130210484442000040404040407E000042665A4C
S113022042424200004262524A464200003C42427C
S113023042423C00007C42427C404000003C42423E
S1130240524A3C00007C42427C444200003C403C18
S113025002423C00007C1010101010000042424288
S113026042423C00004242424224180000424242C0
S1130270425A240000422418182442000044281042
S113028010101000007E040810207E00000E0808E4
S113029008080E0000004020100804000070101030
S11302A010107000001038541010100000000000EE
S11302B0000000FF001C227820207E00000038048B
S11302C03C443C00004040784444780000003840FE
S11302D0404038000004043C44443C0000003844DE
S11302E078403C000030406040404000003C4444C2
S11302F03C04380000404040784444000020006042
S113030020207000000800080848300000405060B9
S113031060504800004040404040300000006854B5
S113032054545400000078444444440000003844C9
S1130330444438000078444478404000003C44443D
S11303403C04060000001C2020202000000038404F
S11303503804780000207020202018000000444455
S11303604444380000004444282810000000445449
S11303705454280000004428102844000000444439
S11303803C04380000007C0810207C00000E08307B
S113039008080E0000080808080808000070100C7F
S11303A01010700000142800000000003C4299A1C5
S11303B0A199423CFFFFFFFFFFFFFFFF0F0F0F0F4D
S11303C0FFFFFFFFF0F0F0F0FFFFFFFF0000000071
S11303D0FFFFFFFFFFFFFFFF0F0F0F0F0F0F0F0FA9
S11303E00F0F0F0FF0F0F0F00F0F0F0F00000000D1
S11303F00F0F0F0FFFFFFFFF55AA55AAAA55AA55C5
S1130400FFFFFFFFAA55AA55AA55AA5511241FBEDE
S1130410CFEFD8E0DEBFCDBF21E0A0E0B1E001C066
S11304201D92A239B207E1F70E94DB040C94C505C2
S11304300C94000090914C0128E0829FF00111245B
S1130440EC54F04028E0290F8491A92FB0E0A75F75
S1130450BE4F8C939F5F31969213F6CF20934C013D
S113046008951F920F920FB60F9211248F939F93AA
S1130470809108018F5F809308018C3341F41092BE
S11304800801809107018F5F809307011EC080914E
S113049007018C3341F41092070180918D018F5F25
S11304A080938D0112C090918D01983118F01092B3
S11304B08D010BC0329B04C08F5F8093070105C080
S11304C0339B03C09F5F90938D019F918F910F90F9
S11304D00FBE0F901F901895FF920F931F93CF9309
S11304E0DF9310924C01F0908D010091070110915F
S11304F00801CDECFC9ED12D1124D695D695D69528
S113050080E38D0F0E941A02DD0F8D2F880F880F54
S1130510D80F8F2D8D1B805D0E941A028AE30E94E2
S11305201A020C9FD12D1124D695D695D69580E329
S11305308D0F0E941A02DD0F8D2F880F880FD80FA0
S1130540802F8D1B805D0E941A028AE30E941A028A
S11305501C9FC12D1124C695C695C69580E38C0FAA
S11305600E941A02CC0F8C2F880F880FC80F812F7E
S11305708C1B805D0E941A02DF91CF911F910F9115
S1130580FF900895FC019C01329522952F7023273A
S11305903F702327A7E4B3E00E94B605AC0156954B
S11305A04795569547955695479520E137E2429FE2
S11305B0C001439F900D529F900D1124AF01481B21
S11305C0590B9A0136952795369527953695279593
S11305D0A5ECB0E20E94B605FC01F295E295EF703D
S11305E0EF27FF70EF2728EE33E0E29FC001E39F7F
S11305F0900DF29F900D1124FA01E81BF90B9F0155
S11306003695279536952795ABE7B4E10E94B60554
S1130610AC015695479524E6249FC001259F900D73
S11306201124AF01481B590B9A01ADECBCEC0E949C
S1130630B60596958795969587959695879520E323
S1130640280F209391019C01220F331F880F991FBB
S1130650880F991F880F991F820F931F481B590BEE
S1130660405D409306010895CF93DF93AC019C0154
S1130670329522952F7023273F702327A7E4B3E0F8
S11306800E94B605FC01F695E795F695E795F69573
S1130690E79520E137E2E29FC001E39F900DF29FCE
S11306A0900D1124FA01E81BF90BEF01D695C795BB
S11306B0D695C795D695C7959E01A5ECB0E20E9444
S11306C0B605AC01529542954F7045275F7045279A
S11306D028EE33E0429FC001439F900D529F900D3E
S11306E01124AF01481B590B9E010E94B605929537
S11306F082958F7089279F708927805D80939001F0
S11307009A013695279536952795ABE7B4E10E9473
S1130710B6059695879520E3280F20938E0164E60D
S1130720689F9001699F300D1124CA01821B930BAD
S11307309C01ADECBCEC0E94B60596958795969508
S1130740879596958795805D80938F01DF91CF91F2
S11307500895CF93DF930E946D052091020130919B
S113076003012B3F310508F447C040914A015091E1
S11307704B0180E091E0841B950BEC01CF70DD27E9
S1130780209527702295207F929582958F708927D6
S11307909F708927822B082E000C990B0E94C2029D
S11307A081E792E09C01C29FC001C39F900DD29F3C
S11307B0900D11240E94340310924C018DE20E948A
S11307C01A02809191010E941A02809106010E94EE
S11307D01A028EE20E941A02809190010E941A026B
S11307E080918E010E941A0280918F010E941A0248
S11307F080E20E941A022BC08091000190910101B5
S11308000E94C20280910401909105010E94340368
S113081010924C018BE20E941A02809191010E9475
S11308201A02809106010E941A028EE20E941A02A4
S1130830809190010E941A0280918E010E941A02F6
S113084080918F010E941A0280E20E941A02DF91B5
S1130850CF9108958CE08093810081E19AE7909391
S113086089008093880082E080936F000895399A0C
S11308706B9AECEAF0E080818061808380818064FF
S1130880808308958093AE00EDEAF0E080818823B0
S1130890ECF70895CF93C62F0E9442048C2F0E9438
S11308A04204CF910895CF935C98C8E089E00E94F8
S11308B0420480E00E944204C150C1F75C9A5C98F3
S11308C0C8E08AE00E94420481E00E944204C150D0
S11308D0C1F75C9A5C98C8E08BE00E94420487E010
S11308E00E944204C150C1F75C9A5C98C8E08CE055
S11308F00E94420481E00E944204C150C1F75C9A04
S11309005C98C8E08FE00E94420480E00E944204A8
S1130910C150C1F75C9ACF910895CF93DF93D1E092
S11309205C98C8E08D2F0E94420480E00E9442043B
S1130930C150C1F75C9ADF5FD93091F7DF91CF9155
S11309400895CF9310924C01C8E080E20E941A02ED
S1130950C150D9F7CF9108951F93CF93DF93C9E086
S1130960D1E011E05C9868AD812F0E944A0468A927
S1130970812F0E944A0468A5812F0E944A0468A11D
S1130980812F0E944A04688D812F0E944A0468893D
S1130990812F0E944A046885812F0E944A0469912C
S11309A0812F0E944A045C9A1F5F1930D9F6DF91A7
S11309B0CF911F9108958FEF8DB984B993EF97B9B3
S11309C08AB98EB915B818B81BB80E9437040E94AA
S11309D053040E948D040E942A0410928D011092E7
S11309E007011092080110920101109200017894FD
S11309F00E94A10480910801843128F40E94A90373
S1130A000E94AC04F7CF0E946C020E94AC04F2CFA7
S1130A109C0121503109892B21F00000215031091A
S1130A20E0F70895CF93509A589880E892E00E9496
S1130A300805509880E590E00E940805C9B180E35C
S1130A4092E00E9408058C2F8170CF910895CF9376
S1130A50509A589881E090E00E940805509882E1ED
S1130A6090E00E940805C9B18CE390E00E9408055B
S1130A708C2F8170CF910895CF93DF93D8E0C0E09D
S1130A800E94270520E8829FC0011124C695C82B27
S1130A90D150B1F78C2FDF91CF910895CF93C82F08
S1130AA0509A589881E090E00E940805C11150982E
S1130AB080E590E00E9408055098CF910895CF9367
S1130AC0DF93D82FC8E08D2F81700E944E05D695F4
S1130AD0C150C9F7DF91CF910895CF93DF930E945E
S1130AE012058CEC0E945F0584E40E945F050E945D
S1130AF027058823E1F30E9412058CEC0E945F0510
S1130B008EEB0E945F050E943C05D82F0E943C0595
S1130B10C82F0E9412058D2F90E090934B01809373
S1130B204A018C2F90E090930301809302018D2F52
S1130B3082958F70DF70C77090E1C99F9001112476
S1130B40282B022E000C330B30930101209300015B
S1130B5021E732E0D29FC001D39F900D11249093DE
S1130B60050180930401DF91CF910895A29FB00104
S1130B70B39FC001A39F700D811D1124911DB29FCD
S1110B80700D811D1124911D0895F894FFCF6E
S9030000FC
